{
  "_format": "hh-sol-artifact-1",
  "contractName": "MultiSigTreasury",
  "sourceName": "contracts/MultiSigTreasury.sol",
  "abi": [
    {
      "inputs": [
        {
          "internalType": "address[]",
          "name": "_executives",
          "type": "address[]"
        }
      ],
      "stateMutability": "nonpayable",
      "type": "constructor"
    },
    {
      "anonymous": false,
      "inputs": [
        {
          "indexed": true,
          "internalType": "uint256",
          "name": "txIndex",
          "type": "uint256"
        },
        {
          "indexed": true,
          "internalType": "address",
          "name": "revoker",
          "type": "address"
        }
      ],
      "name": "ApprovalRevoked",
      "type": "event"
    },
    {
      "anonymous": false,
      "inputs": [
        {
          "indexed": true,
          "internalType": "address",
          "name": "sender",
          "type": "address"
        },
        {
          "indexed": false,
          "internalType": "uint256",
          "name": "amount",
          "type": "uint256"
        }
      ],
      "name": "Deposited",
      "type": "event"
    },
    {
      "anonymous": false,
      "inputs": [
        {
          "indexed": true,
          "internalType": "uint256",
          "name": "txIndex",
          "type": "uint256"
        },
        {
          "indexed": true,
          "internalType": "address",
          "name": "approver",
          "type": "address"
        }
      ],
      "name": "TransactionApproved",
      "type": "event"
    },
    {
      "anonymous": false,
      "inputs": [
        {
          "indexed": true,
          "internalType": "uint256",
          "name": "txIndex",
          "type": "uint256"
        },
        {
          "indexed": true,
          "internalType": "address",
          "name": "executor",
          "type": "address"
        }
      ],
      "name": "TransactionExecuted",
      "type": "event"
    },
    {
      "anonymous": false,
      "inputs": [
        {
          "indexed": true,
          "internalType": "uint256",
          "name": "txIndex",
          "type": "uint256"
        },
        {
          "indexed": true,
          "internalType": "address",
          "name": "proposer",
          "type": "address"
        },
        {
          "indexed": false,
          "internalType": "address",
          "name": "to",
          "type": "address"
        },
        {
          "indexed": false,
          "internalType": "uint256",
          "name": "value",
          "type": "uint256"
        },
        {
          "indexed": false,
          "internalType": "string",
          "name": "description",
          "type": "string"
        }
      ],
      "name": "TransactionProposed",
      "type": "event"
    },
    {
      "inputs": [],
      "name": "MAX_EXECUTIVES",
      "outputs": [
        {
          "internalType": "uint256",
          "name": "",
          "type": "uint256"
        }
      ],
      "stateMutability": "view",
      "type": "function"
    },
    {
      "inputs": [],
      "name": "REQUIRED_APPROVALS",
      "outputs": [
        {
          "internalType": "uint256",
          "name": "",
          "type": "uint256"
        }
      ],
      "stateMutability": "view",
      "type": "function"
    },
    {
      "inputs": [
        {
          "internalType": "uint256",
          "name": "_txIndex",
          "type": "uint256"
        }
      ],
      "name": "approveTransaction",
      "outputs": [],
      "stateMutability": "nonpayable",
      "type": "function"
    },
    {
      "inputs": [],
      "name": "deposit",
      "outputs": [],
      "stateMutability": "payable",
      "type": "function"
    },
    {
      "inputs": [
        {
          "internalType": "uint256",
          "name": "_txIndex",
          "type": "uint256"
        }
      ],
      "name": "executeTransaction",
      "outputs": [],
      "stateMutability": "nonpayable",
      "type": "function"
    },
    {
      "inputs": [
        {
          "internalType": "uint256",
          "name": "",
          "type": "uint256"
        }
      ],
      "name": "executives",
      "outputs": [
        {
          "internalType": "address",
          "name": "",
          "type": "address"
        }
      ],
      "stateMutability": "view",
      "type": "function"
    },
    {
      "inputs": [],
      "name": "getBalance",
      "outputs": [
        {
          "internalType": "uint256",
          "name": "",
          "type": "uint256"
        }
      ],
      "stateMutability": "view",
      "type": "function"
    },
    {
      "inputs": [],
      "name": "getExecutives",
      "outputs": [
        {
          "internalType": "address[]",
          "name": "",
          "type": "address[]"
        }
      ],
      "stateMutability": "view",
      "type": "function"
    },
    {
      "inputs": [
        {
          "internalType": "uint256",
          "name": "_txIndex",
          "type": "uint256"
        }
      ],
      "name": "getTransaction",
      "outputs": [
        {
          "internalType": "address",
          "name": "to",
          "type": "address"
        },
        {
          "internalType": "uint256",
          "name": "value",
          "type": "uint256"
        },
        {
          "internalType": "string",
          "name": "description",
          "type": "string"
        },
        {
          "internalType": "bool",
          "name": "executed",
          "type": "bool"
        },
        {
          "internalType": "uint256",
          "name": "approvalCount",
          "type": "uint256"
        }
      ],
      "stateMutability": "view",
      "type": "function"
    },
    {
      "inputs": [],
      "name": "getTransactionCount",
      "outputs": [
        {
          "internalType": "uint256",
          "name": "",
          "type": "uint256"
        }
      ],
      "stateMutability": "view",
      "type": "function"
    },
    {
      "inputs": [
        {
          "internalType": "uint256",
          "name": "",
          "type": "uint256"
        },
        {
          "internalType": "address",
          "name": "",
          "type": "address"
        }
      ],
      "name": "hasApproved",
      "outputs": [
        {
          "internalType": "bool",
          "name": "",
          "type": "bool"
        }
      ],
      "stateMutability": "view",
      "type": "function"
    },
    {
      "inputs": [
        {
          "internalType": "address",
          "name": "",
          "type": "address"
        }
      ],
      "name": "isExecutive",
      "outputs": [
        {
          "internalType": "bool",
          "name": "",
          "type": "bool"
        }
      ],
      "stateMutability": "view",
      "type": "function"
    },
    {
      "inputs": [
        {
          "internalType": "address",
          "name": "_to",
          "type": "address"
        },
        {
          "internalType": "uint256",
          "name": "_value",
          "type": "uint256"
        },
        {
          "internalType": "string",
          "name": "_description",
          "type": "string"
        }
      ],
      "name": "proposeTransaction",
      "outputs": [
        {
          "internalType": "uint256",
          "name": "txIndex",
          "type": "uint256"
        }
      ],
      "stateMutability": "nonpayable",
      "type": "function"
    },
    {
      "inputs": [
        {
          "internalType": "uint256",
          "name": "_txIndex",
          "type": "uint256"
        }
      ],
      "name": "revokeApproval",
      "outputs": [],
      "stateMutability": "nonpayable",
      "type": "function"
    },
    {
      "inputs": [
        {
          "internalType": "uint256",
          "name": "",
          "type": "uint256"
        }
      ],
      "name": "transactions",
      "outputs": [
        {
          "internalType": "address",
          "name": "to",
          "type": "address"
        },
        {
          "internalType": "uint256",
          "name": "value",
          "type": "uint256"
        },
        {
          "internalType": "string",
          "name": "description",
          "type": "string"
        },
        {
          "internalType": "bool",
          "name": "executed",
          "type": "bool"
        },
        {
          "internalType": "uint256",
          "name": "approvalCount",
          "type": "uint256"
        }
      ],
      "stateMutability": "view",
      "type": "function"
    },
    {
      "stateMutability": "payable",
      "type": "receive"
    }
  ],
  "bytecode": "0x60806040523480156200001157600080fd5b50604051620029c0380380620029c0833981810160405281019062000037919062000476565b60038151146200007e576040517f08c379a0000000000000000000000000000000000000000000000000000000008152600401620000759062000528565b60405180910390fd5b60005b815181101562000280576000828281518110620000a357620000a26200054a565b5b60200260200101519050600073ffffffffffffffffffffffffffffffffffffffff168173ffffffffffffffffffffffffffffffffffffffff16036200011f576040517f08c379a00000000000000000000000000000000000000000000000000000000081526004016200011690620005c9565b60405180910390fd5b600160008273ffffffffffffffffffffffffffffffffffffffff1673ffffffffffffffffffffffffffffffffffffffff16815260200190815260200160002060009054906101000a900460ff1615620001af576040517f08c379a0000000000000000000000000000000000000000000000000000000008152600401620001a6906200063b565b60405180910390fd5b60018060008373ffffffffffffffffffffffffffffffffffffffff1673ffffffffffffffffffffffffffffffffffffffff16815260200190815260200160002060006101000a81548160ff0219169083151502179055506000819080600181540180825580915050600190039060005260206000200160009091909190916101000a81548173ffffffffffffffffffffffffffffffffffffffff021916908373ffffffffffffffffffffffffffffffffffffffff160217905550508080620002779062000696565b91505062000081565b5050620006e3565b6000604051905090565b600080fd5b600080fd5b600080fd5b6000601f19601f8301169050919050565b7f4e487b7100000000000000000000000000000000000000000000000000000000600052604160045260246000fd5b620002ec82620002a1565b810181811067ffffffffffffffff821117156200030e576200030d620002b2565b5b80604052505050565b60006200032362000288565b9050620003318282620002e1565b919050565b600067ffffffffffffffff821115620003545762000353620002b2565b5b602082029050602081019050919050565b600080fd5b600073ffffffffffffffffffffffffffffffffffffffff82169050919050565b600062000397826200036a565b9050919050565b620003a9816200038a565b8114620003b557600080fd5b50565b600081519050620003c9816200039e565b92915050565b6000620003e6620003e08462000336565b62000317565b905080838252602082019050602084028301858111156200040c576200040b62000365565b5b835b81811015620004395780620004248882620003b8565b8452602084019350506020810190506200040e565b5050509392505050565b600082601f8301126200045b576200045a6200029c565b5b81516200046d848260208601620003cf565b91505092915050565b6000602082840312156200048f576200048e62000292565b5b600082015167ffffffffffffffff811115620004b057620004af62000297565b5b620004be8482850162000443565b91505092915050565b600082825260208201905092915050565b7f4e6565642065786163746c792033206578656375746976657300000000000000600082015250565b600062000510601983620004c7565b91506200051d82620004d8565b602082019050919050565b60006020820190508181036000830152620005438162000501565b9050919050565b7f4e487b7100000000000000000000000000000000000000000000000000000000600052603260045260246000fd5b7f5a65726f2061646472657373206e6f7420616c6c6f7765640000000000000000600082015250565b6000620005b1601883620004c7565b9150620005be8262000579565b602082019050919050565b60006020820190508181036000830152620005e481620005a2565b9050919050565b7f4475706c69636174652065786563757469766500000000000000000000000000600082015250565b600062000623601383620004c7565b91506200063082620005eb565b602082019050919050565b60006020820190508181036000830152620006568162000614565b9050919050565b7f4e487b7100000000000000000000000000000000000000000000000000000000600052601160045260246000fd5b6000819050919050565b6000620006a3826200068c565b91507fffffffffffffffffffffffffffffffffffffffffffffffffffffffffffffffff8203620006d857620006d76200065d565b5b600182019050919050565b6122cd80620006f36000396000f3fe6080604052600436106100ec5760003560e01c80639a9c3b701161008a578063d0e30db011610059578063d0e30db0146103c0578063d6165e9b146103ca578063ee22610b14610407578063fa7d9f031461043057610184565b80639a9c3b70146102dc5780639ace38c214610319578063b022ad261461035a578063b1e130fc1461039757610184565b80632e7700f0116100c65780632e7700f01461021a57806333ea3dc814610245578063485227ce14610286578063599c5533146102b157610184565b806312065fe0146101895780632358d5a8146101b4578063242232d1146101f157610184565b366101845760003411610134576040517f08c379a000000000000000000000000000000000000000000000000000000000815260040161012b906114ea565b60405180910390fd5b3373ffffffffffffffffffffffffffffffffffffffff167f2da466a7b24304f47e87fa2e1e5a81b9831ce54fec19055ce277ca2f39ba42c43460405161017a9190611523565b60405180910390a2005b600080fd5b34801561019557600080fd5b5061019e61045b565b6040516101ab9190611523565b60405180910390f35b3480156101c057600080fd5b506101db60048036038101906101d691906115d2565b610463565b6040516101e8919061162d565b60405180910390f35b3480156101fd57600080fd5b5061021860048036038101906102139190611648565b610492565b005b34801561022657600080fd5b5061022f610767565b60405161023c9190611523565b60405180910390f35b34801561025157600080fd5b5061026c60048036038101906102679190611648565b610774565b60405161027d959493929190611703565b60405180910390f35b34801561029257600080fd5b5061029b6108d0565b6040516102a8919061181b565b60405180910390f35b3480156102bd57600080fd5b506102c661095e565b6040516102d39190611523565b60405180910390f35b3480156102e857600080fd5b5061030360048036038101906102fe91906118a2565b610963565b6040516103109190611523565b60405180910390f35b34801561032557600080fd5b50610340600480360381019061033b9190611648565b610c8e565b604051610351959493929190611703565b60405180910390f35b34801561036657600080fd5b50610381600480360381019061037c9190611648565b610d89565b60405161038e9190611916565b60405180910390f35b3480156103a357600080fd5b506103be60048036038101906103b99190611648565b610dc8565b005b6103c861109c565b005b3480156103d657600080fd5b506103f160048036038101906103ec9190611931565b61112f565b6040516103fe919061162d565b60405180910390f35b34801561041357600080fd5b5061042e60048036038101906104299190611648565b61114f565b005b34801561043c57600080fd5b50610445611488565b6040516104529190611523565b60405180910390f35b600047905090565b60036020528160005260406000206020528060005260406000206000915091509054906101000a900460ff1681565b600160003373ffffffffffffffffffffffffffffffffffffffff1673ffffffffffffffffffffffffffffffffffffffff16815260200190815260200160002060009054906101000a900460ff1661051e576040517f08c379a0000000000000000000000000000000000000000000000000000000008152600401610515906119aa565b60405180910390fd5b806002805490508110610566576040517f08c379a000000000000000000000000000000000000000000000000000000000815260040161055d90611a16565b60405180910390fd5b816002818154811061057b5761057a611a36565b5b906000526020600020906005020160030160009054906101000a900460ff16156105da576040517f08c379a00000000000000000000000000000000000000000000000000000000081526004016105d190611ab1565b60405180910390fd5b6003600084815260200190815260200160002060003373ffffffffffffffffffffffffffffffffffffffff1673ffffffffffffffffffffffffffffffffffffffff16815260200190815260200160002060009054906101000a900460ff1615610678576040517f08c379a000000000000000000000000000000000000000000000000000000000815260040161066f90611b1d565b60405180910390fd5b60016003600085815260200190815260200160002060003373ffffffffffffffffffffffffffffffffffffffff1673ffffffffffffffffffffffffffffffffffffffff16815260200190815260200160002060006101000a81548160ff0219169083151502179055506001600284815481106106f7576106f6611a36565b5b906000526020600020906005020160040160008282546107179190611b6c565b925050819055503373ffffffffffffffffffffffffffffffffffffffff16837f924813d717e221b5f46dcd8a56da1679e4612584ab3237d55e5faabf6f6a307960405160405180910390a3505050565b6000600280549050905090565b60008060606000808560028054905081106107c4576040517f08c379a00000000000000000000000000000000000000000000000000000000081526004016107bb90611a16565b60405180910390fd5b6000600288815481106107da576107d9611a36565b5b906000526020600020906005020190508060000160009054906101000a900473ffffffffffffffffffffffffffffffffffffffff168160010154826002018360030160009054906101000a900460ff16846004015482805461083b90611bcf565b80601f016020809104026020016040519081016040528092919081815260200182805461086790611bcf565b80156108b45780601f10610889576101008083540402835291602001916108b4565b820191906000526020600020905b81548152906001019060200180831161089757829003601f168201915b5050505050925096509650965096509650505091939590929450565b6060600080548060200260200160405190810160405280929190818152602001828054801561095457602002820191906000526020600020905b8160009054906101000a900473ffffffffffffffffffffffffffffffffffffffff1673ffffffffffffffffffffffffffffffffffffffff168152602001906001019080831161090a575b5050505050905090565b600281565b6000600160003373ffffffffffffffffffffffffffffffffffffffff1673ffffffffffffffffffffffffffffffffffffffff16815260200190815260200160002060009054906101000a900460ff166109f1576040517f08c379a00000000000000000000000000000000000000000000000000000000081526004016109e8906119aa565b60405180910390fd5b600073ffffffffffffffffffffffffffffffffffffffff168573ffffffffffffffffffffffffffffffffffffffff1603610a60576040517f08c379a0000000000000000000000000000000000000000000000000000000008152600401610a5790611c4c565b60405180910390fd5b60008411610aa3576040517f08c379a0000000000000000000000000000000000000000000000000000000008152600401610a9a90611cb8565b60405180910390fd5b47841115610ae6576040517f08c379a0000000000000000000000000000000000000000000000000000000008152600401610add90611d24565b60405180910390fd5b600280549050905060026040518060a001604052808773ffffffffffffffffffffffffffffffffffffffff16815260200186815260200185858080601f016020809104026020016040519081016040528093929190818152602001838380828437600081840152601f19601f8201169050808301925050505050505081526020016000151581526020016000815250908060018154018082558091505060019003906000526020600020906005020160009091909190915060008201518160000160006101000a81548173ffffffffffffffffffffffffffffffffffffffff021916908373ffffffffffffffffffffffffffffffffffffffff160217905550602082015181600101556040820151816002019081610c049190611f1f565b5060608201518160030160006101000a81548160ff0219169083151502179055506080820151816004015550503373ffffffffffffffffffffffffffffffffffffffff16817fd3e200dc0d04bb5f75092a75b77f23decba743707dc3e5c3d159d647b149f17587878787604051610c7e949392919061202d565b60405180910390a3949350505050565b60028181548110610c9e57600080fd5b90600052602060002090600502016000915090508060000160009054906101000a900473ffffffffffffffffffffffffffffffffffffffff1690806001015490806002018054610ced90611bcf565b80601f0160208091040260200160405190810160405280929190818152602001828054610d1990611bcf565b8015610d665780601f10610d3b57610100808354040283529160200191610d66565b820191906000526020600020905b815481529060010190602001808311610d4957829003601f168201915b5050505050908060030160009054906101000a900460ff16908060040154905085565b60008181548110610d9957600080fd5b906000526020600020016000915054906101000a900473ffffffffffffffffffffffffffffffffffffffff1681565b600160003373ffffffffffffffffffffffffffffffffffffffff1673ffffffffffffffffffffffffffffffffffffffff16815260200190815260200160002060009054906101000a900460ff16610e54576040517f08c379a0000000000000000000000000000000000000000000000000000000008152600401610e4b906119aa565b60405180910390fd5b806002805490508110610e9c576040517f08c379a0000000000000000000000000000000000000000000000000000000008152600401610e9390611a16565b60405180910390fd5b8160028181548110610eb157610eb0611a36565b5b906000526020600020906005020160030160009054906101000a900460ff1615610f10576040517f08c379a0000000000000000000000000000000000000000000000000000000008152600401610f0790611ab1565b60405180910390fd5b6003600084815260200190815260200160002060003373ffffffffffffffffffffffffffffffffffffffff1673ffffffffffffffffffffffffffffffffffffffff16815260200190815260200160002060009054906101000a900460ff16610fad576040517f08c379a0000000000000000000000000000000000000000000000000000000008152600401610fa4906120b9565b60405180910390fd5b60006003600085815260200190815260200160002060003373ffffffffffffffffffffffffffffffffffffffff1673ffffffffffffffffffffffffffffffffffffffff16815260200190815260200160002060006101000a81548160ff02191690831515021790555060016002848154811061102c5761102b611a36565b5b9060005260206000209060050201600401600082825461104c91906120d9565b925050819055503373ffffffffffffffffffffffffffffffffffffffff16837f430c786ad6c97d1739e88415e23257a88a0a989b6bdc4e9e415b72bb53d869a860405160405180910390a3505050565b600034116110df576040517f08c379a00000000000000000000000000000000000000000000000000000000081526004016110d6906114ea565b60405180910390fd5b3373ffffffffffffffffffffffffffffffffffffffff167f2da466a7b24304f47e87fa2e1e5a81b9831ce54fec19055ce277ca2f39ba42c4346040516111259190611523565b60405180910390a2565b60016020528060005260406000206000915054906101000a900460ff1681565b600160003373ffffffffffffffffffffffffffffffffffffffff1673ffffffffffffffffffffffffffffffffffffffff16815260200190815260200160002060009054906101000a900460ff166111db576040517f08c379a00000000000000000000000000000000000000000000000000000000081526004016111d2906119aa565b60405180910390fd5b806002805490508110611223576040517f08c379a000000000000000000000000000000000000000000000000000000000815260040161121a90611a16565b60405180910390fd5b816002818154811061123857611237611a36565b5b906000526020600020906005020160030160009054906101000a900460ff1615611297576040517f08c379a000000000000000000000000000000000000000000000000000000000815260040161128e90611ab1565b60405180910390fd5b6000600284815481106112ad576112ac611a36565b5b90600052602060002090600502019050600281600401541015611305576040517f08c379a00000000000000000000000000000000000000000000000000000000081526004016112fc90612159565b60405180910390fd5b478160010154111561134c576040517f08c379a0000000000000000000000000000000000000000000000000000000008152600401611343906121c5565b60405180910390fd5b60018160030160006101000a81548160ff02191690831515021790555060008160000160009054906101000a900473ffffffffffffffffffffffffffffffffffffffff1673ffffffffffffffffffffffffffffffffffffffff1682600101546040516113b790612216565b60006040518083038185875af1925050503d80600081146113f4576040519150601f19603f3d011682016040523d82523d6000602084013e6113f9565b606091505b505090508061143d576040517f08c379a000000000000000000000000000000000000000000000000000000000815260040161143490612277565b60405180910390fd5b3373ffffffffffffffffffffffffffffffffffffffff16857fefc13bdcf58f184ea7cae26b499fb33b539e01d0197cea456f3ada289b8cf19b60405160405180910390a35050505050565b600381565b600082825260208201905092915050565b7f4d7573742073656e642045544800000000000000000000000000000000000000600082015250565b60006114d4600d8361148d565b91506114df8261149e565b602082019050919050565b60006020820190508181036000830152611503816114c7565b9050919050565b6000819050919050565b61151d8161150a565b82525050565b60006020820190506115386000830184611514565b92915050565b600080fd5b600080fd5b6115518161150a565b811461155c57600080fd5b50565b60008135905061156e81611548565b92915050565b600073ffffffffffffffffffffffffffffffffffffffff82169050919050565b600061159f82611574565b9050919050565b6115af81611594565b81146115ba57600080fd5b50565b6000813590506115cc816115a6565b92915050565b600080604083850312156115e9576115e861153e565b5b60006115f78582860161155f565b9250506020611608858286016115bd565b9150509250929050565b60008115159050919050565b61162781611612565b82525050565b6000602082019050611642600083018461161e565b92915050565b60006020828403121561165e5761165d61153e565b5b600061166c8482850161155f565b91505092915050565b61167e81611594565b82525050565b600081519050919050565b60005b838110156116ad578082015181840152602081019050611692565b60008484015250505050565b6000601f19601f8301169050919050565b60006116d582611684565b6116df818561148d565b93506116ef81856020860161168f565b6116f8816116b9565b840191505092915050565b600060a0820190506117186000830188611675565b6117256020830187611514565b818103604083015261173781866116ca565b9050611746606083018561161e565b6117536080830184611514565b9695505050505050565b600081519050919050565b600082825260208201905092915050565b6000819050602082019050919050565b61179281611594565b82525050565b60006117a48383611789565b60208301905092915050565b6000602082019050919050565b60006117c88261175d565b6117d28185611768565b93506117dd83611779565b8060005b8381101561180e5781516117f58882611798565b9750611800836117b0565b9250506001810190506117e1565b5085935050505092915050565b6000602082019050818103600083015261183581846117bd565b905092915050565b600080fd5b600080fd5b600080fd5b60008083601f8401126118625761186161183d565b5b8235905067ffffffffffffffff81111561187f5761187e611842565b5b60208301915083600182028301111561189b5761189a611847565b5b9250929050565b600080600080606085870312156118bc576118bb61153e565b5b60006118ca878288016115bd565b94505060206118db8782880161155f565b935050604085013567ffffffffffffffff8111156118fc576118fb611543565b5b6119088782880161184c565b925092505092959194509250565b600060208201905061192b6000830184611675565b92915050565b6000602082840312156119475761194661153e565b5b6000611955848285016115bd565b91505092915050565b7f4e6f7420616e2065786563757469766500000000000000000000000000000000600082015250565b600061199460108361148d565b915061199f8261195e565b602082019050919050565b600060208201905081810360008301526119c381611987565b9050919050565b7f5472616e73616374696f6e20646f6573206e6f74206578697374000000000000600082015250565b6000611a00601a8361148d565b9150611a0b826119ca565b602082019050919050565b60006020820190508181036000830152611a2f816119f3565b9050919050565b7f4e487b7100000000000000000000000000000000000000000000000000000000600052603260045260246000fd5b7f416c726561647920657865637574656400000000000000000000000000000000600082015250565b6000611a9b60108361148d565b9150611aa682611a65565b602082019050919050565b60006020820190508181036000830152611aca81611a8e565b9050919050565b7f416c726561647920617070726f76656400000000000000000000000000000000600082015250565b6000611b0760108361148d565b9150611b1282611ad1565b602082019050919050565b60006020820190508181036000830152611b3681611afa565b9050919050565b7f4e487b7100000000000000000000000000000000000000000000000000000000600052601160045260246000fd5b6000611b778261150a565b9150611b828361150a565b9250828201905080821115611b9a57611b99611b3d565b5b92915050565b7f4e487b7100000000000000000000000000000000000000000000000000000000600052602260045260246000fd5b60006002820490506001821680611be757607f821691505b602082108103611bfa57611bf9611ba0565b5b50919050565b7f496e76616c696420726563697069656e74000000000000000000000000000000600082015250565b6000611c3660118361148d565b9150611c4182611c00565b602082019050919050565b60006020820190508181036000830152611c6581611c29565b9050919050565b7f56616c7565206d757374206265203e2030000000000000000000000000000000600082015250565b6000611ca260118361148d565b9150611cad82611c6c565b602082019050919050565b60006020820190508181036000830152611cd181611c95565b9050919050565b7f496e73756666696369656e742074726561737572792062616c616e6365000000600082015250565b6000611d0e601d8361148d565b9150611d1982611cd8565b602082019050919050565b60006020820190508181036000830152611d3d81611d01565b9050919050565b7f4e487b7100000000000000000000000000000000000000000000000000000000600052604160045260246000fd5b60008190508160005260206000209050919050565b60006020601f8301049050919050565b600082821b905092915050565b600060088302611dd57fffffffffffffffffffffffffffffffffffffffffffffffffffffffffffffffff82611d98565b611ddf8683611d98565b95508019841693508086168417925050509392505050565b6000819050919050565b6000611e1c611e17611e128461150a565b611df7565b61150a565b9050919050565b6000819050919050565b611e3683611e01565b611e4a611e4282611e23565b848454611da5565b825550505050565b600090565b611e5f611e52565b611e6a818484611e2d565b505050565b5b81811015611e8e57611e83600082611e57565b600181019050611e70565b5050565b601f821115611ed357611ea481611d73565b611ead84611d88565b81016020851015611ebc578190505b611ed0611ec885611d88565b830182611e6f565b50505b505050565b600082821c905092915050565b6000611ef660001984600802611ed8565b1980831691505092915050565b6000611f0f8383611ee5565b9150826002028217905092915050565b611f2882611684565b67ffffffffffffffff811115611f4157611f40611d44565b5b611f4b8254611bcf565b611f56828285611e92565b600060209050601f831160018114611f895760008415611f77578287015190505b611f818582611f03565b865550611fe9565b601f198416611f9786611d73565b60005b82811015611fbf57848901518255600182019150602085019450602081019050611f9a565b86831015611fdc5784890151611fd8601f891682611ee5565b8355505b6001600288020188555050505b505050505050565b82818337600083830152505050565b600061200c838561148d565b9350612019838584611ff1565b612022836116b9565b840190509392505050565b60006060820190506120426000830187611675565b61204f6020830186611514565b8181036040830152612062818486612000565b905095945050505050565b7f4e6f7420617070726f7665642079657400000000000000000000000000000000600082015250565b60006120a360108361148d565b91506120ae8261206d565b602082019050919050565b600060208201905081810360008301526120d281612096565b9050919050565b60006120e48261150a565b91506120ef8361150a565b925082820390508181111561210757612106611b3d565b5b92915050565b7f4e6f7420656e6f75676820617070726f76616c73000000000000000000000000600082015250565b600061214360148361148d565b915061214e8261210d565b602082019050919050565b6000602082019050818103600083015261217281612136565b9050919050565b7f496e73756666696369656e742062616c616e6365000000000000000000000000600082015250565b60006121af60148361148d565b91506121ba82612179565b602082019050919050565b600060208201905081810360008301526121de816121a2565b9050919050565b600081905092915050565b50565b60006122006000836121e5565b915061220b826121f0565b600082019050919050565b6000612221826121f3565b9150819050919050565b7f5472616e73666572206661696c65640000000000000000000000000000000000600082015250565b6000612261600f8361148d565b915061226c8261222b565b602082019050919050565b6000602082019050818103600083015261229081612254565b905091905056fea2646970667358221220b77fdc467545a92bf548d27440d05aaec1edb1ba7078d75e84476b831b89b33e64736f6c63430008140033",
  "linkReferences": {},
  "deployedLinkReferences": {}
}